{
  "contracts/dependencies/uniswap-v2-periphery/contracts/dependencies/uniswap-lib/contracts/test/AddressStringUtilTest.sol": {
    "AddressStringUtilTest": {
      "abi": [
        {
          "inputs": [
            {
              "internalType": "address",
              "name": "addr",
              "type": "address"
            },
            {
              "internalType": "uint256",
              "name": "len",
              "type": "uint256"
            }
          ],
          "name": "toAsciiString",
          "outputs": [
            {
              "internalType": "string",
              "name": "",
              "type": "string"
            }
          ],
          "stateMutability": "pure",
          "type": "function"
        }
      ],
      "evm": {
        "bytecode": {
          "linkReferences": {},
          "object": "608060405234801561001057600080fd5b506102a6806100206000396000f3fe608060405234801561001057600080fd5b506004361061002b5760003560e01c80635768786e14610030575b600080fd5b61005c6004803603604081101561004657600080fd5b506001600160a01b0381351690602001356100d1565b6040805160208082528351818301528351919283929083019185019080838360005b8381101561009657818101518382015260200161007e565b50505050905090810190601f1680156100c35780820380516001836020036101000a031916815260200191505b509250505060405180910390f35b60606100dd83836100e4565b9392505050565b6060600282061580156100f75750600082115b8015610104575060288211155b610155576040805162461bcd60e51b815260206004820152601e60248201527f41646472657373537472696e675574696c3a20494e56414c49445f4c454e0000604482015290519081900360640190fd5b60608267ffffffffffffffff8111801561016e57600080fd5b506040519080825280601f01601f191660200182016040528015610199576020820181803683370190505b5090506001600160a01b03841660005b6002850481101561023d57600860138290030282901c600f600482901c1660f0821682036101d682610247565b8685600202815181106101e557fe5b60200101906001600160f81b031916908160001a90535061020581610247565b86856002026001018151811061021757fe5b60200101906001600160f81b031916908160001a90535050600190920191506101a99050565b5090949350505050565b6000600a8260ff16101561026257506030810160f81b61026b565b506037810160f81b5b91905056fea26469706673582212205e1e8bf93cfdb26a62386b26937fcb9cd8494662e45f7a3a3a9e1f96b302167564736f6c63430007040033",
          "opcodes": "PUSH1 0x80 PUSH1 0x40 MSTORE CALLVALUE DUP1 ISZERO PUSH2 0x10 JUMPI PUSH1 0x0 DUP1 REVERT JUMPDEST POP PUSH2 0x2A6 DUP1 PUSH2 0x20 PUSH1 0x0 CODECOPY PUSH1 0x0 RETURN INVALID PUSH1 0x80 PUSH1 0x40 MSTORE CALLVALUE DUP1 ISZERO PUSH2 0x10 JUMPI PUSH1 0x0 DUP1 REVERT JUMPDEST POP PUSH1 0x4 CALLDATASIZE LT PUSH2 0x2B JUMPI PUSH1 0x0 CALLDATALOAD PUSH1 0xE0 SHR DUP1 PUSH4 0x5768786E EQ PUSH2 0x30 JUMPI JUMPDEST PUSH1 0x0 DUP1 REVERT JUMPDEST PUSH2 0x5C PUSH1 0x4 DUP1 CALLDATASIZE SUB PUSH1 0x40 DUP2 LT ISZERO PUSH2 0x46 JUMPI PUSH1 0x0 DUP1 REVERT JUMPDEST POP PUSH1 0x1 PUSH1 0x1 PUSH1 0xA0 SHL SUB DUP2 CALLDATALOAD AND SWAP1 PUSH1 0x20 ADD CALLDATALOAD PUSH2 0xD1 JUMP JUMPDEST PUSH1 0x40 DUP1 MLOAD PUSH1 0x20 DUP1 DUP3 MSTORE DUP4 MLOAD DUP2 DUP4 ADD MSTORE DUP4 MLOAD SWAP2 SWAP3 DUP4 SWAP3 SWAP1 DUP4 ADD SWAP2 DUP6 ADD SWAP1 DUP1 DUP4 DUP4 PUSH1 0x0 JUMPDEST DUP4 DUP2 LT ISZERO PUSH2 0x96 JUMPI DUP2 DUP2 ADD MLOAD DUP4 DUP3 ADD MSTORE PUSH1 0x20 ADD PUSH2 0x7E JUMP JUMPDEST POP POP POP POP SWAP1 POP SWAP1 DUP2 ADD SWAP1 PUSH1 0x1F AND DUP1 ISZERO PUSH2 0xC3 JUMPI DUP1 DUP3 SUB DUP1 MLOAD PUSH1 0x1 DUP4 PUSH1 0x20 SUB PUSH2 0x100 EXP SUB NOT AND DUP2 MSTORE PUSH1 0x20 ADD SWAP2 POP JUMPDEST POP SWAP3 POP POP POP PUSH1 0x40 MLOAD DUP1 SWAP2 SUB SWAP1 RETURN JUMPDEST PUSH1 0x60 PUSH2 0xDD DUP4 DUP4 PUSH2 0xE4 JUMP JUMPDEST SWAP4 SWAP3 POP POP POP JUMP JUMPDEST PUSH1 0x60 PUSH1 0x2 DUP3 MOD ISZERO DUP1 ISZERO PUSH2 0xF7 JUMPI POP PUSH1 0x0 DUP3 GT JUMPDEST DUP1 ISZERO PUSH2 0x104 JUMPI POP PUSH1 0x28 DUP3 GT ISZERO JUMPDEST PUSH2 0x155 JUMPI PUSH1 0x40 DUP1 MLOAD PUSH3 0x461BCD PUSH1 0xE5 SHL DUP2 MSTORE PUSH1 0x20 PUSH1 0x4 DUP3 ADD MSTORE PUSH1 0x1E PUSH1 0x24 DUP3 ADD MSTORE PUSH32 0x41646472657373537472696E675574696C3A20494E56414C49445F4C454E0000 PUSH1 0x44 DUP3 ADD MSTORE SWAP1 MLOAD SWAP1 DUP2 SWAP1 SUB PUSH1 0x64 ADD SWAP1 REVERT JUMPDEST PUSH1 0x60 DUP3 PUSH8 0xFFFFFFFFFFFFFFFF DUP2 GT DUP1 ISZERO PUSH2 0x16E JUMPI PUSH1 0x0 DUP1 REVERT JUMPDEST POP PUSH1 0x40 MLOAD SWAP1 DUP1 DUP3 MSTORE DUP1 PUSH1 0x1F ADD PUSH1 0x1F NOT AND PUSH1 0x20 ADD DUP3 ADD PUSH1 0x40 MSTORE DUP1 ISZERO PUSH2 0x199 JUMPI PUSH1 0x20 DUP3 ADD DUP2 DUP1 CALLDATASIZE DUP4 CALLDATACOPY ADD SWAP1 POP JUMPDEST POP SWAP1 POP PUSH1 0x1 PUSH1 0x1 PUSH1 0xA0 SHL SUB DUP5 AND PUSH1 0x0 JUMPDEST PUSH1 0x2 DUP6 DIV DUP2 LT ISZERO PUSH2 0x23D JUMPI PUSH1 0x8 PUSH1 0x13 DUP3 SWAP1 SUB MUL DUP3 SWAP1 SHR PUSH1 0xF PUSH1 0x4 DUP3 SWAP1 SHR AND PUSH1 0xF0 DUP3 AND DUP3 SUB PUSH2 0x1D6 DUP3 PUSH2 0x247 JUMP JUMPDEST DUP7 DUP6 PUSH1 0x2 MUL DUP2 MLOAD DUP2 LT PUSH2 0x1E5 JUMPI INVALID JUMPDEST PUSH1 0x20 ADD ADD SWAP1 PUSH1 0x1 PUSH1 0x1 PUSH1 0xF8 SHL SUB NOT AND SWAP1 DUP2 PUSH1 0x0 BYTE SWAP1 MSTORE8 POP PUSH2 0x205 DUP2 PUSH2 0x247 JUMP JUMPDEST DUP7 DUP6 PUSH1 0x2 MUL PUSH1 0x1 ADD DUP2 MLOAD DUP2 LT PUSH2 0x217 JUMPI INVALID JUMPDEST PUSH1 0x20 ADD ADD SWAP1 PUSH1 0x1 PUSH1 0x1 PUSH1 0xF8 SHL SUB NOT AND SWAP1 DUP2 PUSH1 0x0 BYTE SWAP1 MSTORE8 POP POP PUSH1 0x1 SWAP1 SWAP3 ADD SWAP2 POP PUSH2 0x1A9 SWAP1 POP JUMP JUMPDEST POP SWAP1 SWAP5 SWAP4 POP POP POP POP JUMP JUMPDEST PUSH1 0x0 PUSH1 0xA DUP3 PUSH1 0xFF AND LT ISZERO PUSH2 0x262 JUMPI POP PUSH1 0x30 DUP2 ADD PUSH1 0xF8 SHL PUSH2 0x26B JUMP JUMPDEST POP PUSH1 0x37 DUP2 ADD PUSH1 0xF8 SHL JUMPDEST SWAP2 SWAP1 POP JUMP INVALID LOG2 PUSH5 0x6970667358 0x22 SLT KECCAK256 0x5E 0x1E DUP12 0xF9 EXTCODECOPY REVERT 0xB2 PUSH11 0x62386B26937FCB9CD84946 PUSH3 0xE45F7A GASPRICE GASPRICE SWAP15 0x1F SWAP7 0xB3 MUL AND PUSH22 0x64736F6C634300070400330000000000000000000000 "
        },
        "methodIdentifiers": {
          "toAsciiString(address,uint256)": "5768786e"
        }
      }
    }
  }
}