{
  "_format": "hh-sol-artifact-1",
  "contractName": "TransferHelperTestFakeFallback",
  "sourceName": "contracts/dependencies/uniswap-v2-periphery/contracts/dependencies/uniswap-lib/contracts/test/TransferHelperTest.sol",
  "abi": [
    {
      "inputs": [
        {
          "internalType": "bool",
          "name": "shouldRevert_",
          "type": "bool"
        }
      ],
      "name": "setup",
      "outputs": [],
      "stateMutability": "nonpayable",
      "type": "function"
    },
    {
      "inputs": [],
      "name": "shouldRevert",
      "outputs": [
        {
          "internalType": "bool",
          "name": "",
          "type": "bool"
        }
      ],
      "stateMutability": "view",
      "type": "function"
    },
    {
      "inputs": [],
      "name": "withdraw",
      "outputs": [],
      "stateMutability": "nonpayable",
      "type": "function"
    },
    {
      "stateMutability": "payable",
      "type": "receive"
    }
  ],
  "bytecode": "0x608060405234801561001057600080fd5b5061012d806100206000396000f3fe60806040526004361060335760003560e01c80633ccfd60b14604d578063d3072d8214605f578063e2c169ec146085576048565b3660485760005460ff1615604657600080fd5b005b600080fd5b348015605857600080fd5b50604660ad565b348015606a57600080fd5b50607160db565b604080519115158252519081900360200190f35b348015609057600080fd5b5060466004803603602081101560a557600080fd5b5035151560e4565b60405133904780156108fc02916000818181858888f1935050505015801560d8573d6000803e3d6000fd5b50565b60005460ff1681565b6000805460ff191691151591909117905556fea26469706673582212207b7f2206d9a44ed6dd5d4f986d9c5238a084454f5a9d2e72d57eeab23c38349164736f6c63430007040033",
  "linkReferences": {},
  "deployedLinkReferences": {}
}