{
  "_format": "hh-sol-artifact-1",
  "contractName": "ErisToken",
  "sourceName": "contracts/ErisToken.sol",
  "abi": [
    {
      "inputs": [],
      "stateMutability": "nonpayable",
      "type": "constructor"
    },
    {
      "anonymous": false,
      "inputs": [
        {
          "indexed": true,
          "internalType": "address",
          "name": "owner",
          "type": "address"
        },
        {
          "indexed": true,
          "internalType": "address",
          "name": "spender",
          "type": "address"
        },
        {
          "indexed": false,
          "internalType": "uint256",
          "name": "value",
          "type": "uint256"
        }
      ],
      "name": "Approval",
      "type": "event"
    },
    {
      "anonymous": false,
      "inputs": [
        {
          "indexed": true,
          "internalType": "address",
          "name": "from",
          "type": "address"
        },
        {
          "indexed": true,
          "internalType": "address",
          "name": "to",
          "type": "address"
        },
        {
          "indexed": false,
          "internalType": "uint256",
          "name": "value",
          "type": "uint256"
        }
      ],
      "name": "Transfer",
      "type": "event"
    },
    {
      "inputs": [
        {
          "internalType": "address",
          "name": "owner",
          "type": "address"
        },
        {
          "internalType": "address",
          "name": "spender",
          "type": "address"
        }
      ],
      "name": "allowance",
      "outputs": [
        {
          "internalType": "uint256",
          "name": "",
          "type": "uint256"
        }
      ],
      "stateMutability": "view",
      "type": "function"
    },
    {
      "inputs": [
        {
          "internalType": "address",
          "name": "spender",
          "type": "address"
        },
        {
          "internalType": "uint256",
          "name": "amount",
          "type": "uint256"
        }
      ],
      "name": "approve",
      "outputs": [
        {
          "internalType": "bool",
          "name": "",
          "type": "bool"
        }
      ],
      "stateMutability": "nonpayable",
      "type": "function"
    },
    {
      "inputs": [
        {
          "internalType": "address",
          "name": "account",
          "type": "address"
        }
      ],
      "name": "balanceOf",
      "outputs": [
        {
          "internalType": "uint256",
          "name": "",
          "type": "uint256"
        }
      ],
      "stateMutability": "view",
      "type": "function"
    },
    {
      "inputs": [
        {
          "internalType": "uint256",
          "name": "amount",
          "type": "uint256"
        }
      ],
      "name": "burn",
      "outputs": [],
      "stateMutability": "nonpayable",
      "type": "function"
    },
    {
      "inputs": [
        {
          "internalType": "address",
          "name": "account",
          "type": "address"
        },
        {
          "internalType": "uint256",
          "name": "amount",
          "type": "uint256"
        }
      ],
      "name": "burnFrom",
      "outputs": [],
      "stateMutability": "nonpayable",
      "type": "function"
    },
    {
      "inputs": [],
      "name": "decimals",
      "outputs": [
        {
          "internalType": "uint8",
          "name": "",
          "type": "uint8"
        }
      ],
      "stateMutability": "view",
      "type": "function"
    },
    {
      "inputs": [
        {
          "internalType": "address",
          "name": "spender",
          "type": "address"
        },
        {
          "internalType": "uint256",
          "name": "subtractedValue",
          "type": "uint256"
        }
      ],
      "name": "decreaseAllowance",
      "outputs": [
        {
          "internalType": "bool",
          "name": "",
          "type": "bool"
        }
      ],
      "stateMutability": "nonpayable",
      "type": "function"
    },
    {
      "inputs": [
        {
          "internalType": "address",
          "name": "spender",
          "type": "address"
        },
        {
          "internalType": "uint256",
          "name": "addedValue",
          "type": "uint256"
        }
      ],
      "name": "increaseAllowance",
      "outputs": [
        {
          "internalType": "bool",
          "name": "",
          "type": "bool"
        }
      ],
      "stateMutability": "nonpayable",
      "type": "function"
    },
    {
      "inputs": [],
      "name": "name",
      "outputs": [
        {
          "internalType": "string",
          "name": "",
          "type": "string"
        }
      ],
      "stateMutability": "view",
      "type": "function"
    },
    {
      "inputs": [],
      "name": "symbol",
      "outputs": [
        {
          "internalType": "string",
          "name": "",
          "type": "string"
        }
      ],
      "stateMutability": "view",
      "type": "function"
    },
    {
      "inputs": [],
      "name": "totalSupply",
      "outputs": [
        {
          "internalType": "uint256",
          "name": "",
          "type": "uint256"
        }
      ],
      "stateMutability": "view",
      "type": "function"
    },
    {
      "inputs": [
        {
          "internalType": "address",
          "name": "recipient",
          "type": "address"
        },
        {
          "internalType": "uint256",
          "name": "amount",
          "type": "uint256"
        }
      ],
      "name": "transfer",
      "outputs": [
        {
          "internalType": "bool",
          "name": "",
          "type": "bool"
        }
      ],
      "stateMutability": "nonpayable",
      "type": "function"
    },
    {
      "inputs": [],
      "name": "transferFeePercentageX100",
      "outputs": [
        {
          "internalType": "uint8",
          "name": "",
          "type": "uint8"
        }
      ],
      "stateMutability": "view",
      "type": "function"
    },
    {
      "inputs": [
        {
          "internalType": "address",
          "name": "sender",
          "type": "address"
        },
        {
          "internalType": "address",
          "name": "recipient",
          "type": "address"
        },
        {
          "internalType": "uint256",
          "name": "amount",
          "type": "uint256"
        }
      ],
      "name": "transferFrom",
      "outputs": [
        {
          "internalType": "bool",
          "name": "",
          "type": "bool"
        }
      ],
      "stateMutability": "nonpayable",
      "type": "function"
    }
  ],
  "bytecode": "0x60806040523480156200001157600080fd5b506040805180820182526004808252634552495360e01b60208084018281528551808701909652928552840152815191929183918391620000559160039162000513565b5080516200006b90600490602084019062000513565b50506005805460ff191660121790555060408051606081019091526029808252620000ab91906200140e60208301396200020360201b620006831760201c565b620000da6040518060600160405280602881526020016200145c602891396200020360201b620006831760201c565b50506200010b60405180606001604052806025815260200162001437602591396200020360201b620006831760201c565b6005805461ff00191661640017905560408051808201909152601081526f26b4b73a34b7339012b99022a924a99760811b602080830191909152690a968163f0a57b4000009162000167918390620002b6811b6200072917901c565b62000187620001806200037260201b620007db1760201c565b8262000376565b60408051808201909152600f81526e26b4b73a32b21012b99022a924a99760891b6020820152620001cd90620001bc62000485565b620002b660201b620007291760201c565b620001fc604051806060016040528060248152602001620013ea602491396200020360201b620006831760201c565b50620005bf565b620002b3816040516024018080602001828103825283818151815260200191508051906020019080838360005b838110156200024a57818101518382015260200162000230565b50505050905090810190601f168015620002785780820380516001836020036101000a031916815260200191505b5060408051601f198184030181529190526020810180516001600160e01b0390811663104c13eb60e21b179091529093506200048b16915050565b50565b6200036e82826040516024018080602001838152602001828103825284818151815260200191508051906020019080838360005b8381101562000304578181015183820152602001620002ea565b50505050905090810190601f168015620003325780820380516001836020036101000a031916815260200191505b5060408051601f198184030181529190526020810180516001600160e01b039081166309710a9d60e41b179091529094506200048b1692505050565b5050565b3390565b6001600160a01b038216620003d2576040805162461bcd60e51b815260206004820152601f60248201527f45524332303a206d696e7420746f20746865207a65726f206164647265737300604482015290519081900360640190fd5b620003e060008383620004ac565b620003fc81600254620004b160201b620007df1790919060201c565b6002556001600160a01b038216600090815260208181526040909120546200042f918390620007df620004b1821b17901c565b6001600160a01b0383166000818152602081815260408083209490945583518581529351929391927fddf252ad1be2c89b69c2b068fc378daa952ba7f163c4a11628f55a4df523b3ef9281900390910190a35050565b60025490565b80516a636f6e736f6c652e6c6f67602083016000808483855afa5050505050565b505050565b6000828201838110156200050c576040805162461bcd60e51b815260206004820152601b60248201527f536166654d6174683a206164646974696f6e206f766572666c6f770000000000604482015290519081900360640190fd5b9392505050565b828054600181600116156101000203166002900490600052602060002090601f0160209004810192826200054b576000855562000596565b82601f106200056657805160ff191683800117855562000596565b8280016001018555821562000596579182015b828111156200059657825182559160200191906001019062000579565b50620005a4929150620005a8565b5090565b5b80821115620005a45760008155600101620005a9565b610e1b80620005cf6000396000f3fe608060405234801561001057600080fd5b50600436106100ea5760003560e01c806370a082311161008c578063a457c2d711610066578063a457c2d7146102bf578063a9059cbb146102eb578063dd62ed3e14610317578063fbb33a9a14610345576100ea565b806370a082311461026557806379cc67901461028b57806395d89b41146102b7576100ea565b806323b872dd116100c857806323b872dd146101c6578063313ce567146101fc578063395093511461021a57806342966c6814610246576100ea565b806306fdde03146100ef578063095ea7b31461016c57806318160ddd146101ac575b600080fd5b6100f761034d565b6040805160208082528351818301528351919283929083019185019080838360005b83811015610131578181015183820152602001610119565b50505050905090810190601f16801561015e5780820380516001836020036101000a031916815260200191505b509250505060405180910390f35b6101986004803603604081101561018257600080fd5b506001600160a01b0381351690602001356103e3565b604080519115158252519081900360200190f35b6101b4610400565b60408051918252519081900360200190f35b610198600480360360608110156101dc57600080fd5b506001600160a01b03813581169160208101359091169060400135610406565b61020461048d565b6040805160ff9092168252519081900360200190f35b6101986004803603604081101561023057600080fd5b506001600160a01b038135169060200135610496565b6102636004803603602081101561025c57600080fd5b50356104e4565b005b6101b46004803603602081101561027b57600080fd5b50356001600160a01b03166104f8565b610263600480360360408110156102a157600080fd5b506001600160a01b038135169060200135610513565b6100f761056d565b610198600480360360408110156102d557600080fd5b506001600160a01b0381351690602001356105ce565b6101986004803603604081101561030157600080fd5b506001600160a01b038135169060200135610636565b6101b46004803603604081101561032d57600080fd5b506001600160a01b038135811691602001351661064a565b610204610675565b60038054604080516020601f60026000196101006001881615020190951694909404938401819004810282018101909252828152606093909290918301828280156103d95780601f106103ae576101008083540402835291602001916103d9565b820191906000526020600020905b8154815290600101906020018083116103bc57829003601f168201915b5050505050905090565b60006103f76103f06107db565b8484610840565b50600192915050565b60025490565b600061041384848461092c565b6104838461041f6107db565b61047e85604051806060016040528060288152602001610d0b602891396001600160a01b038a1660009081526001602052604081209061045d6107db565b6001600160a01b031681526020810191909152604001600020549190610a87565b610840565b5060019392505050565b60055460ff1690565b60006103f76104a36107db565b8461047e85600160006104b46107db565b6001600160a01b03908116825260208083019390935260409182016000908120918c1681529252902054906107df565b6104f56104ef6107db565b82610b1e565b50565b6001600160a01b031660009081526020819052604090205490565b600061054a82604051806060016040528060248152602001610d33602491396105438661053e6107db565b61064a565b9190610a87565b905061055e836105586107db565b83610840565b6105688383610b1e565b505050565b60048054604080516020601f60026000196101006001881615020190951694909404938401819004810282018101909252828152606093909290918301828280156103d95780601f106103ae576101008083540402835291602001916103d9565b60006103f76105db6107db565b8461047e85604051806060016040528060258152602001610dc160259139600160006106056107db565b6001600160a01b03908116825260208083019390935260409182016000908120918d16815292529020549190610a87565b60006103f76106436107db565b848461092c565b6001600160a01b03918216600090815260016020908152604080832093909416825291909152205490565b600554610100900460ff1681565b6104f5816040516024018080602001828103825283818151815260200191508051906020019080838360005b838110156106c75781810151838201526020016106af565b50505050905090810190601f1680156106f45780820380516001836020036101000a031916815260200191505b5060408051601f198184030181529190526020810180516001600160e01b031663104c13eb60e21b1790529250610c1a915050565b6107d782826040516024018080602001838152602001828103825284818151815260200191508051906020019080838360005b8381101561077457818101518382015260200161075c565b50505050905090810190601f1680156107a15780820380516001836020036101000a031916815260200191505b5060408051601f198184030181529190526020810180516001600160e01b03166309710a9d60e41b1790529350610c1a92505050565b5050565b3390565b600082820183811015610839576040805162461bcd60e51b815260206004820152601b60248201527f536166654d6174683a206164646974696f6e206f766572666c6f770000000000604482015290519081900360640190fd5b9392505050565b6001600160a01b0383166108855760405162461bcd60e51b8152600401808060200182810382526024815260200180610d9d6024913960400191505060405180910390fd5b6001600160a01b0382166108ca5760405162461bcd60e51b8152600401808060200182810382526022815260200180610cc36022913960400191505060405180910390fd5b6001600160a01b03808416600081815260016020908152604080832094871680845294825291829020859055815185815291517f8c5be1e5ebec7d5bd14f71427d1e84f3dd0314c0f7b2291e5b200ac8c7c3b9259281900390910190a3505050565b6001600160a01b0383166109715760405162461bcd60e51b8152600401808060200182810382526025815260200180610d786025913960400191505060405180910390fd5b6001600160a01b0382166109b65760405162461bcd60e51b8152600401808060200182810382526023815260200180610c7e6023913960400191505060405180910390fd5b6109c1838383610568565b6109fe81604051806060016040528060268152602001610ce5602691396001600160a01b0386166000908152602081905260409020549190610a87565b6001600160a01b038085166000908152602081905260408082209390935590841681522054610a2d90826107df565b6001600160a01b038084166000818152602081815260409182902094909455805185815290519193928716927fddf252ad1be2c89b69c2b068fc378daa952ba7f163c4a11628f55a4df523b3ef92918290030190a3505050565b60008184841115610b165760405162461bcd60e51b81526004018080602001828103825283818151815260200191508051906020019080838360005b83811015610adb578181015183820152602001610ac3565b50505050905090810190601f168015610b085780820380516001836020036101000a031916815260200191505b509250505060405180910390fd5b505050900390565b6001600160a01b038216610b635760405162461bcd60e51b8152600401808060200182810382526021815260200180610d576021913960400191505060405180910390fd5b610b6f82600083610568565b610bac81604051806060016040528060228152602001610ca1602291396001600160a01b0385166000908152602081905260409020549190610a87565b6001600160a01b038316600090815260208190526040902055600254610bd29082610c3b565b6002556040805182815290516000916001600160a01b038516917fddf252ad1be2c89b69c2b068fc378daa952ba7f163c4a11628f55a4df523b3ef9181900360200190a35050565b80516a636f6e736f6c652e6c6f67602083016000808483855afa5050505050565b600061083983836040518060400160405280601e81526020017f536166654d6174683a207375627472616374696f6e206f766572666c6f770000815250610a8756fe45524332303a207472616e7366657220746f20746865207a65726f206164647265737345524332303a206275726e20616d6f756e7420657863656564732062616c616e636545524332303a20617070726f766520746f20746865207a65726f206164647265737345524332303a207472616e7366657220616d6f756e7420657863656564732062616c616e636545524332303a207472616e7366657220616d6f756e74206578636565647320616c6c6f77616e636545524332303a206275726e20616d6f756e74206578636565647320616c6c6f77616e636545524332303a206275726e2066726f6d20746865207a65726f206164647265737345524332303a207472616e736665722066726f6d20746865207a65726f206164647265737345524332303a20617070726f76652066726f6d20746865207a65726f206164647265737345524332303a2064656372656173656420616c6c6f77616e63652062656c6f77207a65726fa264697066735822122039436e2e4f137e09856ee6154fe11be12233622121cf22342a135524bde0e9d064736f6c63430007040033455249533a3a636f6e7374727563746f723a20496e7374616e7469617465642045524953446976696e653a3a636f6e7374727563746f723a20496e7374616e74696174696e6720446976696e65455249533a3a636f6e7374727563746f723a20496e7374616e74696174696e672045524953446976696e653a3a636f6e7374727563746f723a20496e7374616e74696174656420446976696e65",
  "linkReferences": {},
  "deployedLinkReferences": {}
}