{
  "_format": "hh-sol-artifact-1",
  "contractName": "NamerTestFakeNoncompliantERC20",
  "sourceName": "contracts/dependencies/uniswap-v2-periphery/contracts/dependencies/uniswap-lib/contracts/test/SafeERC20NamerTest.sol",
  "abi": [
    {
      "inputs": [
        {
          "internalType": "bytes32",
          "name": "name_",
          "type": "bytes32"
        },
        {
          "internalType": "bytes32",
          "name": "symbol_",
          "type": "bytes32"
        }
      ],
      "stateMutability": "nonpayable",
      "type": "constructor"
    },
    {
      "inputs": [],
      "name": "name",
      "outputs": [
        {
          "internalType": "bytes32",
          "name": "",
          "type": "bytes32"
        }
      ],
      "stateMutability": "view",
      "type": "function"
    },
    {
      "inputs": [],
      "name": "symbol",
      "outputs": [
        {
          "internalType": "bytes32",
          "name": "",
          "type": "bytes32"
        }
      ],
      "stateMutability": "view",
      "type": "function"
    }
  ],
  "bytecode": "0x608060405234801561001057600080fd5b506040516100ea3803806100ea8339818101604052604081101561003357600080fd5b5080516020909101516000919091556001556097806100536000396000f3fe6080604052348015600f57600080fd5b506004361060325760003560e01c806306fdde0314603757806395d89b4114604f575b600080fd5b603d6055565b60408051918252519081900360200190f35b603d605b565b60005481565b6001548156fea2646970667358221220277acfda88877118ceb87adec02a6d82059182bf57bd2c842fa6957a777ad4b664736f6c63430007040033",
  "linkReferences": {},
  "deployedLinkReferences": {}
}