{
  "_format": "hh-sol-artifact-1",
  "contractName": "SafeERC20NamerTest",
  "sourceName": "contracts/dependencies/uniswap-v2-periphery/contracts/dependencies/uniswap-lib/contracts/test/SafeERC20NamerTest.sol",
  "abi": [
    {
      "inputs": [
        {
          "internalType": "address",
          "name": "token",
          "type": "address"
        }
      ],
      "name": "tokenName",
      "outputs": [
        {
          "internalType": "string",
          "name": "",
          "type": "string"
        }
      ],
      "stateMutability": "view",
      "type": "function"
    },
    {
      "inputs": [
        {
          "internalType": "address",
          "name": "token",
          "type": "address"
        }
      ],
      "name": "tokenSymbol",
      "outputs": [
        {
          "internalType": "string",
          "name": "",
          "type": "string"
        }
      ],
      "stateMutability": "view",
      "type": "function"
    }
  ],
  "bytecode": "0x608060405234801561001057600080fd5b506106a1806100206000396000f3fe608060405234801561001057600080fd5b50600436106100365760003560e01c8063033b9b4f1461003b578063e54f7522146100d6575b600080fd5b6100616004803603602081101561005157600080fd5b50356001600160a01b03166100fc565b6040805160208082528351818301528351919283929083019185019080838360005b8381101561009b578181015183820152602001610083565b50505050905090810190601f1680156100c85780820380516001836020036101000a031916815260200191505b509250505060405180910390f35b610061600480360360208110156100ec57600080fd5b50356001600160a01b031661010f565b60606101078261011a565b90505b919050565b60606101078261014b565b60608061012e836395d89b4160e01b610174565b9050805160001415610107576101438361039f565b91505061010a565b60608061015f836306fdde0360e01b610174565b905080516000141561010757610143836103ac565b60408051600481526024810182526020810180516001600160e01b03166001600160e01b031985161781529151815160609360009385936001600160a01b03891693919290918291908083835b602083106101e05780518252601f1990920191602091820191016101c1565b6001836020036101000a038019825116818451168082178552505050505050905001915050600060405180830381855afa9150503d8060008114610240576040519150601f19603f3d011682016040523d82523d6000602084013e610245565b606091505b509150915081158061025657508051155b15610274576040518060200160405280600081525092505050610399565b8051602014156102ac57600081806020019051602081101561029557600080fd5b505190506102a2816103b9565b9350505050610399565b604081511115610384578080602001905160208110156102cb57600080fd5b81019080805160405193929190846401000000008211156102eb57600080fd5b90830190602082018581111561030057600080fd5b825164010000000081118282018810171561031a57600080fd5b82525081516020918201929091019080838360005b8381101561034757818101518382015260200161032f565b50505050905090810190601f1680156103745780820380516001836020036101000a031916815260200191505b5060405250505092505050610399565b60405180602001604052806000815250925050505b92915050565b60606101078260066104e0565b60606101078260286104e0565b6040805160208082528183019092526060918291906020820181803683370190505090506000805b60208110156104425760008582602081106103f857fe5b1a60f81b90506001600160f81b0319811615610439578084848151811061041b57fe5b60200101906001600160f81b031916908160001a9053506001909201915b506001016103e1565b5060608167ffffffffffffffff8111801561045c57600080fd5b506040519080825280601f01601f191660200182016040528015610487576020820181803683370190505b50905060005b828110156104d7578381815181106104a157fe5b602001015160f81c60f81b8282815181106104b857fe5b60200101906001600160f81b031916908160001a90535060010161048d565b50949350505050565b6060600282061580156104f35750600082115b8015610500575060288211155b610551576040805162461bcd60e51b815260206004820152601e60248201527f41646472657373537472696e675574696c3a20494e56414c49445f4c454e0000604482015290519081900360640190fd5b60608267ffffffffffffffff8111801561056a57600080fd5b506040519080825280601f01601f191660200182016040528015610595576020820181803683370190505b5090506001600160a01b03841660005b6002850481101561063957600860138290030282901c600f600482901c1660f0821682036105d282610643565b8685600202815181106105e157fe5b60200101906001600160f81b031916908160001a90535061060181610643565b86856002026001018151811061061357fe5b60200101906001600160f81b031916908160001a90535050600190920191506105a59050565b5090949350505050565b6000600a8260ff16101561065e57506030810160f81b61010a565b506037810160f81b61010a56fea26469706673582212204cc09842e8450fd32e21b6b18d415d0d7a659cd0ec021071d6e83f7f3fc38c4b64736f6c63430007040033",
  "linkReferences": {},
  "deployedLinkReferences": {}
}